:020000000B28CB
:10000800DE00030E8312B4000A08B50033298316F4
:10001800FF239000830157292408AD002508AE006E
:100028002608AF002E08AF002D08AE00AD012D0840
:10003800B0002E08B1002F08B2000108B007013047
:100048000318B1070318B207003085190130B3004F
:100058008101A401A501A6013708AD003808AE004A
:10006800AF0132082F02031D3F2831082E02031D5D
:100078003F2830082D020318B3283908AD003A0884
:10008800AE00AF012F083202031D50282E0831029E
:10009800031D50282D0830020318B3282A0303191A
:1000A80059282A08023A031D7A28330B67282A0B95
:1000B80067289230AA0AB9001530BA00C430B700D0
:1000C8000B30B8000800B308031D77282A08023A45
:1000D800031D77280530AA0AB9000930BA00C830CC
:1000E800B700B8010800AA01C120080003302A029D
:1000F800031CB128AA0A2A1C922800300310A00D5C
:10010800A10DA20DA30D3202031D90280430310267
:10011800031D9028E33030020318201443302A02CC
:10012800031C08002308A7002208AB002108A80028
:100138002008AC00A001A101A201A30127082B05FA
:10014800031DAD2828082C05031DAD28A901A90AFF
:10015800AE28A901C120AA010800C1200800B308DF
:10016800031DB928AA01AA0ABA28AA01FF30A700C4
:10017800AB00A800AC00A90178282430B9002B30C6
:10018800BA006030B7001F30B80008000730990087
:1001980083169F01083085008312810188308316F9
:1001A8008100083096008B160B118B150B100B175E
:1001B8008B179B011C141A08831285002908031940
:1001C800E22811290030051C0130B6000508360662
:1001D800FE3909290030851C0130B600B60D050826
:1001E8003606FD3909290030051D0130B600B60D67
:1001F800B60D05083606FB3909290030051E013001
:10020800B600B60E05083606EF39360685002229EF
:10021800051085100511051222292808303A0319FE
:100228000129603A0319E628E03A03190C29683ACB
:100238000319EE28203A0319F728222983169B016F
:100248008312050883169A001C158B1355309D00E0
:10025800AA309D009C148B178312A901E2280B1D5C
:10026800382945210B113E290B1C3E2985161020E3
:100278000B10851235088A00340E8300DE0E5E0EE0
:10028800090000302602031D4F29FF302502031DF7
:100298004F29FF30240203180800A40A0319A50AED
:1002A8000319A60A08002030831384002D30662124
:1002B8006030B7001F30B8002430B9002B30BA00C6
:1002C8008301CA2864008001840A040603190034E3
:0402D8000406672988
:02400E00D431AB
:00000001FF
