:020000000B28CB
:10000800DE00030E8312B4000A08B5005B298316CC
:10001800FF23900083017F292408AD002508AE0046
:100028002608AF002E08AF002D08AE00AD012D0840
:10003800B0002E08B1002F08B2000108B007013047
:100048000318B1070318B207003085190130B3004F
:100058008101A401A501A6013A08AD003B08AE0044
:10006800AF0132082F02031D3F2831082E02031D5D
:100078003F2830082D020318B3283C08AD003D087E
:10008800AE00AF012F083202031D50282E0831029E
:10009800031D50282D0830020318B3282A0303191A
:1000A80059282A08023A031D7A28330B67282A0B95
:1000B80067289230AA0ABC001530BD00C430BA00C7
:1000C8000B30BB000800B308031D77282A08023A42
:1000D800031D77280530AA0ABC000930BD00C830C6
:1000E800BA00BB010800AA01C120080003302A0297
:1000F800031CB128AA0A2A1C922800300310A00D5C
:10010800A10DA20DA30D3202031D90280430310267
:10011800031D9028E33030020318201443302A02CC
:10012800031C08002308A7002208AB002108A80028
:100138002008AC00A001A101A201A30127082B05FA
:10014800031DAD2828082C05031DAD28A901A90AFF
:10015800AE28A901C120AA010800C1200800B308DF
:10016800031DB928AA01AA0ABA28AA01FF30A700C4
:10017800AB00A800AC00A90178282430BC002B30C3
:10018800BD006030BA001F30BB000800073099007E
:1001980083169F0108308500831205168101883077
:1001A80083168100083096008B160B118B150B10E7
:1001B8000B178B179B011C141A088312850029083A
:1001C8000319E32808290030051C0130B900050887
:1001D8003906FE3901290030851C0130B900B90DF6
:1001E80005083906FD3901290030051D0130B9001F
:1001F800B90DB90D05083906FB39390685001629E8
:1002080005108510051116292808503A0319E72802
:10021800E03A03190429683A0319EF28203A031928
:10022800F828162927082C21831228082C21831640
:100238009B018312050883169A001C158B135530F1
:100248009D00AA309D009C148B178312A901E328F6
:10025800B7000512CF30B6003129B60B3029342942
:1002680035298312B8013708B600380A3D2903102A
:10027800B60CFF3E031D3B29361C442905164529AB
:100288000512CF30B6004829B60B47294B294C290F
:1002980008308312B80A3802031C37290516CF30F4
:1002A800B6005629B60B552959295A2908000B1D9D
:1002B80060296D210B1166290B1C662985161020F3
:1002C8000B10851235088A00340E8300DE0E5E0E90
:1002D800090000302602031D7729FF302502031D7F
:1002E8007729FF30240203180800A40A0319A50A75
:1002F8000319A60A08002030831384002D308E21AC
:100308006030BA001F30BB002430BC002B30BD0069
:100318008301CA2864008001840A04060319003492
:0403280004068F290F
:02400E00D431AB
:00000001FF
