:020000000F28C7
:10000800FE00030EFA000408FB000A08FC00831235
:100018007F08FD00102807290B1C55280630F90019
:100028003030F800F80B1628F90B162864008312F4
:1000380005182728F830F4000130602083120518CD
:10004800532894202228851832285030F400013093
:10005800602083128518532894202D2885193D285F
:10006800D830F40001306020831285195328942079
:100078003828051A4828B030F4000130602083126F
:10008800051A532894204328851A53283030F40041
:10009800013060208312851A532894204E280508C1
:1000A8000B107D08FF007C088A007B0884007A0E0C
:1000B8008300FE0E7E0E0900F700BE201830F60001
:1000C8005E30F500F50B6628F60B66286400F03004
:1000D800831295050C30F600A830F500F50B722850
:1000E800F60B722864007708C4207709C4207408C6
:1000F800C4207409C4208312BE20E030F50084288F
:10010800F50B83286400F030831295056830F600FB
:10011800E430F500F50B8E28F60B8E2864000800F5
:10012800BE201830F1005E30F000F00B9928F10B7A
:1001380099286400F030831295050630F100D33019
:10014800F000F00BA528F10BA528AA288312BE20E1
:10015800DE30F000AF28F00BAE286400F0308312D8
:100168009505FA30F100D530F000F00BB928F10B05
:10017800B928080091011508F0390C3895000800D5
:10018800F2000830F3008312BE20E030F000CC28E3
:10019800F00BCB286400F03083129505F21FDE289F
:1001A8000530F1005F30F000F00BD828F10BD828AB
:1001B800DD28E328DF30F000E128F00BE028031009
:1001C800F20DF30303190800C7289A1383169F0139
:1001D8003B3085005F3081003B30950083128500FD
:1001E800043092001A309300333083169200203086
:1001F800831295003B30831696008B150B100B1756
:0A0208008B17630005298301E92824
:02400E00D4FEDE
:00000001FF
