:020000000B28CB
:10000800DE00030E8312B8000A08B9008B29831694
:10001800FF23900083019D292408B1002508B20020
:100028002608B3003208B3003108B200B101310824
:10003800B5003208B6003308B7000108B50701302B
:100048000318B6070318B707003085190130B40044
:100058008101A401A501A6013A08B1003B08B2003C
:10006800B30137083302031D3F2836083202031D47
:100078003F28350831020318F7283C08B1003D082D
:10008800B200B30133083702031D50283208360284
:10009800031D5028310835020318F7282C030319CB
:1000A80059282C08023A031DA928340B67282C0B61
:1000B80067289230AC0ABC001530BD00D830BA00B1
:1000C8000730BB000800B408031DF2282C08023AC8
:1000D800031DF22800303702031D78280730360246
:1000E800031D7828103035020030031C8D28370294
:1000F800031D84280B303602031D8428C4303502C2
:1001080003188C284630AC005430BC0003300E294C
:1001180000303702031D96280B303602031D96283F
:10012800C5303502031CF22800303702031DA2280F
:1001380015303602031DA228923035020318F22822
:100148000530AC0ABC0009300E2903302C02031C10
:10015800EA2846302C020318EA28AC0A2C1CC528C9
:1001680000300310A00DA10DA20DA30D3702031D31
:10017800C32804303602031DC328E33035020318B0
:10018800201443302C02031C08002308A90022086D
:10019800AD002108AA002008AE00A001A101A2011B
:1001A800A30129082D05031DE4282A082E05031D8F
:1001B800E428C230AB01AB0AA7000130A800E72849
:1001C800AB01A701A8010521AC0108002C08463A9B
:1001D800031DF528B830A7000130A800AC0105219F
:1001E800080005210800B408031DFD28AC01AC0A6D
:1001F800FE28AC01FF30A900AD00AA00AE00AB019B
:10020800F3282430BC002B30BD006030BA001F300A
:10021800BB000800BD00C830BA00BB0108000730A9
:10022800990083169F010830850083128101883068
:1002380083168100083096008B160B118B150B1056
:100248000B178B179B011C141A08831285002B08A7
:1002580003192B293C2905144D2985144D29051509
:100268004D2905164D2905108510051105124D2932
:100278002A08303A03193529603A03192F29E03A38
:1002880003193729683A03193129203A0319332900
:100298004D2983169B018312050883169A001C15A5
:1002A8008B1355309D00AA309D009C148B17831228
:1002B800AB012B2900302602031D6829FF302502D7
:1002C800031D6829FF30240203186F29A40A0319A3
:1002D800A50A0319A60AB00A3008043A031D080043
:1002E800B00128082704031982290130A702003029
:1002F800031CA803A802AF01AF0A08002F080319BE
:100308000800B030AB01AB0AAF01AA0008000B1D12
:1003180090295E210B1196290B1C96298516102011
:100328000B10851239088A00380E8300DE0E5E0E27
:1003380009002030831384003130AC216030BA00CA
:100348001F30BB002430BC002B30BD0083011329B3
:1003580064008001840A0406031900340406AD29E8
:02400E00D431AB
:00000001FF
